:100000000C945D000C9485000C9485000C94850084
:100010000C9485000C9485000C9485000C9485004C
:100020000C9485000C9485000C9485000C9485003C
:100030000C9485000C9485000C9485000C9485002C
:100040000C94C0020C9485000C9430030C940A03A9
:100050000C9485000C9485000C9485000C9485000C
:100060000C9485000C9485000000000024002700FB
:100070002A0000000000250028002B0004040404CE
:100080000404040402020202020203030303030342
:10009000010204081020408001020408102001021F
:1000A00004081020000000080002010000030407FB
:1000B0000000000000000000060511241FBECFEF65
:1000C000D8E0DEBFCDBF12E0A0E0B1E0EAEBFAE09D
:1000D00002C005900D92A434B107D9F722E0A4E440
:1000E000B2E001C01D92AA3FB207E1F710E0CDE5F2
:1000F000D0E004C02197FE010E945505CC35D10700
:10010000C9F70E9462030C945B050C940000E7EAB7
:10011000F0E02491E3E9F0E09491EFE7F0E0E4917E
:10012000EE23C9F0222339F0233001F1A8F4213065
:1001300019F1223029F1F0E0EE0FFF1FEE58FF4FCA
:10014000A591B4912FB7F894EC91811126C09095A8
:100150009E239C932FBF08952730A9F02830C9F023
:10016000243049F7209180002F7D03C0209180002A
:100170002F7720938000DFCF24B52F7724BDDBCFEE
:1001800024B52F7DFBCF2091B0002F772093B000B6
:10019000D2CF2091B0002F7DF9CF9E2BDACF3FB781
:1001A000F8948091590290915A02A0915B02B0910B
:1001B0005C0226B5A89B05C02F3F19F00196A11D32
:1001C000B11D3FBFBA2FA92F982F8827BC01CD01A1
:1001D000620F711D811D911D42E0660F771F881F00
:1001E000991F4A95D1F708958F929F92AF92BF922F
:1001F000CF92DF92EF92FF920E94CF004B015C0101
:100200008AE0C82ED12CE12CF12C0E94CF00681975
:1002100079098A099B09683E734081059105A8F315
:1002200021E0C21AD108E108F10888EE880E83E0C7
:10023000981EA11CB11CC114D104E104F10429F7DA
:10024000FF90EF90DF90CF90BF90AF909F908F90F6
:100250000895AF92BF92CF92DF92EF92FF920F93E9
:100260001F93CF93DF936C017B018B01040F151F4C
:10027000EB015E01AE18BF08C017D10759F06991B4
:10028000D601ED91FC910190F081E02DC601099518
:10029000892B79F7C501DF91CF911F910F91FF90C5
:1002A000EF90DF90CF90BF90AF900895FC01538DF9
:1002B000448D252F30E0842F90E0821B930B541740
:1002C00010F0CF96089501970895FC01918D828DCD
:1002D000981761F0A28DAE0FBF2FB11D5D968C9166
:1002E000928D9F5F9F73928F90E008958FEF9FEFA5
:1002F0000895FC01918D828D981731F0828DE80F61
:10030000F11D858D90E008958FEF9FEF0895FC011A
:10031000918D228D892F90E0805C9F4F821B9109E7
:100320008F73992708958DE592E00E94870121E05F
:10033000892B09F420E0822F089580E090E0892B3A
:1003400029F00E94930181110C9400000895FC0192
:10035000A48DA80FB92FB11DA35ABF4F2C91848D26
:1003600090E001968F739927848FA689B7892C9383
:10037000A089B1898C91837080648C93938D848DD6
:10038000981306C00288F389E02D80818F7D8083D9
:100390000895EF92FF920F931F93CF93DF93EC0199
:1003A00081E0888F9B8D8C8D98131AC0E889F9891C
:1003B000808185FF15C09FB7F894EE89FF8960831F
:1003C000E889F98980818370806480839FBF81E0A0
:1003D00090E0DF91CF911F910F91FF90EF900895E2
:1003E000F62E0B8D10E00F5F1F4F0F731127E02EBD
:1003F0008C8D8E110CC00FB607FCFACFE889F989F5
:10040000808185FFF5CFCE010E94A701F1CFEB8D52
:10041000EC0FFD2FF11DE35AFF4FF0829FB7F894C8
:100420000B8FEA89FB8980818062CFCFCF93DF93E6
:10043000EC01888D8823B9F0AA89BB89E889F989FC
:100440008C9185FD03C0808186FD0DC00FB607FC31
:10045000F7CF8C9185FFF2CF808185FFEDCFCE0164
:100460000E94A701E9CFDF91CF910895FC0101908F
:100470000020E9F73197AF01481B590BBC018DE50E
:1004800092E00C9429018F929F92AF92BF920F93AA
:100490001F93CF93DF93CDB7DEB7A1970FB6F89434
:1004A000DEBF0FBECDBF19A2423008F44AE08E0174
:1004B0000F5D1F4F842E912CB12CA12CA50194010E
:1004C0000E943305E62FB901CA01EA30F4F4E05D79
:1004D000D801EE938D01232B242B252B79F790E067
:1004E00080E0109719F0CD010E943602A1960FB658
:1004F000F894DEBF0FBECDBFDF91CF911F910F915A
:10050000BF90AF909F908F900895E95CE1CFCF921C
:10051000DF92EF92FF92CF93DF936B017C016DE24C
:100520008DE592E00E94C901EC0166277727CB0197
:100530006C197D098E099F094AE00E9443028C0FC5
:100540009D1FDF91CF91FF90EF90DF90CF900895A6
:10055000CF93DF930E943602EC0182E191E00E948A
:1005600036028C0F9D1FDF91CF910895BC01990F2A
:10057000880B990B97FD0C9487024AE00C94430278
:100580001F920F920FB60F9211242F933F938F93C8
:100590009F93AF93BF938091550290915602A09183
:1005A0005702B09158023091540223E0230F2D37A7
:1005B00058F50196A11DB11D209354028093550258
:1005C00090935602A0935702B0935802809159021B
:1005D00090915A02A0915B02B0915C020196A11D1C
:1005E000B11D8093590290935A02A0935B02B0937D
:1005F0005C02BF91AF919F918F913F912F910F908E
:100600000FBE0F901F90189526E8230F0296A11D8C
:10061000B11DD2CF1F920F920FB60F9211242F93BC
:100620003F934F935F936F937F938F939F93AF937A
:10063000BF93EF93FF938DE592E00E94A701FF9196
:10064000EF91BF91AF919F918F917F916F915F914A
:100650004F913F912F910F900FBE0F901F901895C3
:100660001F920F920FB60F9211242F938F939F9387
:10067000EF93FF93E0916D02F0916E028081E09123
:100680007302F091740282FD1BC09081809176020A
:100690008F5F8F7320917702821741F0E09176028D
:1006A000F0E0E35AFD4F958F80937602FF91EF9132
:1006B0009F918F912F910F900FBE0F901F901895C3
:1006C0008081F4CF789484B5826084BD84B58160E4
:1006D00084BD85B5826085BD85B5816085BD80910D
:1006E0006E00816080936E00109281008091810085
:1006F000826080938100809181008160809381007D
:10070000809180008160809380008091B10084603E
:100710008093B1008091B00081608093B00080919F
:100720007A00846080937A0080917A00826080935E
:100730007A0080917A00816080937A0080917A00BB
:10074000806880937A001092C100E0916D02F09170
:100750006E0282E08083E0916902F0916A02108269
:10076000E0916B02F0916C028FEC80831092750225
:10077000E0917102F091720286E08083E0916F0255
:10078000F0917002808180618083E0916F02F0912E
:100790007002808188608083E0916F02F091700226
:1007A000808180688083E0916F02F0917002808187
:1007B0008F7D80838CE191E00E94A80286E391E026
:1007C0000E94A802E3E9F0E02491EFE7F0E08491D1
:1007D000882399F090E0880F991FFC01E859FF4F9A
:1007E000A591B491FC01EE58FF4F859194918FB77C
:1007F000F894EC91E22BEC938FBF80E00E9487008D
:1008000080E591E00E94A80282E791E00E94360212
:100810004AE060E273E080E090E00E94430282E1FF
:1008200091E00E94360282E191E00E94360210E4DB
:1008300088EC882E912CA12CB12CC0E0D0E08FB791
:10084000F894C0905502D0905602E0905702F09074
:1008500058028FBF80915302882321F180914F026B
:1008600090915002A0915102B0915202C81AD90A37
:10087000EA0AFB0A28EEC21623E0D206E104F104DC
:1008800030F01092530285E891E00E94A8020E9485
:10089000F4002097A1F20E949301882381F20E9424
:1008A0000000CDCF80914E02882399F180914A02B9
:1008B00090914B02A0914C02B0914D02A70196017C
:1008C000281B390B4A0B5B0BCA01B901683833E1AD
:1008D00073078105910598F080E00E9487001092CF
:1008E0004E0281E080935302C0924F02D092500298
:1008F000E0925102F092520280EB91E0C6CFA50146
:1009000094010E94330581E020FD80E00E94870071
:10091000BECF10937C0080917A00806480937A002F
:1009200080917A0086FDFCCF8091780090917900CB
:100930009093490280934802813293403CF181E0D8
:100940000E94870081E080934E022FB7F894809137
:10095000550290915602A0915702B09158022FBFB4
:1009600080934A0290934B02A0934C02B0934D02A5
:1009700083EE91E00E9436028091480290914902F4
:100980000E94B60280E092E00E94A8028091440298
:1009900090914502A0914602B0914702A7019601AD
:1009A000281B390B4A0B5B0BDA01C901853F9140CB
:1009B000A105B10508F46BCF8BE192E00E943602ED
:1009C00080914802909149020E94B60289E292E029
:1009D0000E94360280E293E00E94B60288E392E031
:1009E0000E94360280914E0281110DC088E191E093
:1009F0000E94A802C0924402D0924502E0924602B0
:100A0000F092470244CF85E191E0F2CFEDE5F2E0CC
:100A10001382128288EE93E0A0E0B0E08483958395
:100A2000A683B78384E091E09183808385EC90E096
:100A30009587848784EC90E09787868780EC90E0A8
:100A4000918B808B81EC90E0938B828B82EC90E099
:100A5000958B848B86EC90E0978B868B118E128E13
:100A6000138E148E0895A1E21A2EAA1BBB1BFD0142
:100A70000DC0AA1FBB1FEE1FFF1FA217B307E4077D
:100A8000F50720F0A21BB30BE40BF50B661F771FD5
:100A9000881F991F1A9469F76095709580959095B5
:100AA0009B01AC01BD01CF010895EE0FFF1F059022
:0A0AB000F491E02D0994F894FFCFB3
:100ABA0000000000C90129015601160287016501DB
:100ACA0079010D0A004F4E004F464600536F756E6E
:100ADA00642053656E736F722042757A7A6572204C
:100AEA00416C61726D003D3D3D3D3D3D3D3D3D3DAD
:100AFA003D3D3D3D3D3D3D3D3D3D3D3D3D3D3D0059
:100B0A00526561647921204D6F6E69746F72696EE6
:100B1A006720736F756E64206C6576656C732E2E14
:100B2A002E005468726573686F6C64207365742054
:100B3A00746F3A2000436F6F6C646F776E20636F37
:100B4A006D706C657465202D20526561647920741E
:100B5A006F2064657465637420736F756E647300C7
:100B6A0035207365636F6E647320656C617073659D
:100B7A0064202D2042757A7A6572204F46462028D5
:100B8A00656E746572696E6720636F6F6C646F77E8
:100B9A006E2900414C45525421204C6F75642073D4
:100BAA006F756E642064657465637465643A2000C9
:100BBA00202D2042757A7A6572204F4E20666F7218
:100BCA002035207365636F6E647300536F756E64AE
:100BDA00204C6576656C3A2000207C20546872654A
:100BEA0073686F6C643A2000207C2042757A7A65BB
:040BFA00723A20002B
:00000001FF
